{
	"data": {
		"bytecode": {
			"linkReferences": {},
			"object": "608060405234801561001057600080fd5b50610c37806100206000396000f3fe608060405234801561001057600080fd5b50600436106100f55760003560e01c806392d6631311610097578063be9afac711610066578063be9afac714610244578063d0f2d71914610257578063fa879bf01461026a578063fa93f8831461027d57600080fd5b806392d6631314610192578063a324ad24146101a5578063a3ea1b91146101b8578063b8d16dbc1461022157600080fd5b80637f791833116100d35780637f7918331461014657806381d6284c146101595780638aa001fc1461016c5780638c8d98a01461017f57600080fd5b80633e239e1a146100fa57806362ba96871461012057806365c7284014610133575b600080fd5b61010d61010836600461098c565b610290565b6040519081526020015b60405180910390f35b61010d61012e3660046109cd565b6102ba565b61010d61014136600461098c565b6102e5565b61010d610154366004610a32565b6102fa565b61010d610167366004610a86565b610321565b61010d61017a36600461098c565b6104b0565b61010d61018d366004610ac9565b6104bd565b61010d6101a036600461098c565b6104e1565b61010d6101b336600461098c565b6105d2565b6101cb6101c636600461098c565b6105e7565b6040516101179190600060e082019050825182526020830151602083015260408301516040830152606083015160608301526080830151608083015260a083015160a083015260c083015160c083015292915050565b61023461022f36600461098c565b6107b0565b6040519015158152602001610117565b61010d610252366004610b0c565b610803565b61010d61026536600461098c565b6108fe565b61010d61027836600461098c565b610943565b61010d61028b36600461098c565b61095f565b60006018603c6102a08185610b5a565b6102aa9190610b5a565b6102b49190610b6e565b92915050565b60006102db8661ffff168660ff168660ff168660ff168660ff166000610321565b9695505050505050565b60006102f0826105e7565b6040015192915050565b60006103188561ffff168560ff168560ff168560ff16600080610321565b95945050505050565b60006107b25b8781101561037557610338816107b0565b156103525761034b6301e2850083610b82565b9150610363565b6103606301e1338083610b82565b91505b8061036d81610b9a565b915050610327565b61037d61096d565b601f815261038a896107b0565b1561039b57601d60208201526103a3565b601c60208201525b601f60408201819052601e606083018190526080830182905260a0830181905260c0830182905260e0830182905261010083018190526101208301829052610140830152610160820152600191505b878210156104465780610406600184610bcb565b600c811061041657610416610bb5565b60200201516104289062015180610be2565b6104329084610b82565b92508161043e81610b9a565b9250506103f2565b610451600188610bcb565b61045e9062015180610be2565b6104689084610b82565b925061047686610e10610be2565b6104809084610b82565b925061048d85603c610be2565b6104979084610b82565b92506104a38484610b82565b9998505050505050505050565b60006102b4603c83610b6e565b60006104d98461ffff168460ff168460ff166000806000610321565b949350505050565b60008080806104f46301e1338086610b5a565b610500906107b2610b82565b915061050d6107b26108fe565b610516836108fe565b6105209190610bcb565b90506105306301e2850082610be2565b61053a9084610b82565b9250806105496107b284610bcb565b6105539190610bcb565b610561906301e13380610be2565b61056b9084610b82565b92505b848311156105ca5761058d610584600184610bcb565b61ffff166107b0565b156105a7576105a06301e2850084610bcb565b92506105b8565b6105b56301e2850084610bcb565b92505b6105c3600183610bcb565b915061056e565b509392505050565b60006105dd826105e7565b6020015192915050565b6106276040518060e00160405280600081526020016000815260200160008152602001600081526020016000815260200160008152602001600081525090565b60008080610634856104e1565b84526106416107b26108fe565b845161064c906108fe565b6106569190610bcb565b9150610666826301e28500610be2565b6106709084610b82565b9250816107b285600001516106859190610bcb565b61068f9190610bcb565b61069d906301e13380610be2565b6106a79084610b82565b925060008091505b600c821161070f576106c5828660000151610803565b6106d29062015180610be2565b9050856106df8583610b82565b11156106f1576020850182905261070f565b6106fb8185610b82565b93508161070781610b9a565b9250506106af565b600091505b61072685602001518660000151610803565b82101561076e578561073b8562015180610b82565b111561074d576001604086015261076e565b61075a6201518085610b82565b93508161076681610b9a565b925050610714565b61077786610290565b60608601526107858661095f565b6080860152610793866104b0565b60a08601526107a186610943565b60c08601525092949350505050565b60006107bd600483610b6e565b156107ca57506000919050565b6107d5606483610b6e565b156107e257506001919050565b6107ee61019083610b6e565b156107fb57506000919050565b506001919050565b6000600c83111561085a5760405162461bcd60e51b815260206004820152601c60248201527f4572726f723a496e76616c696420417267756d656e7420436f756e7400000000604482015260640160405180910390fd5b82600114806108695750826003145b806108745750826005145b8061087f5750826007145b8061088a5750826008145b80610895575082600a145b806108a0575082600c145b156108ad5750601f6102b4565b82600414806108bc5750826006145b806108c75750826009145b806108d2575082600b145b156108df5750601e6102b4565b6108e8826107b0565b156108f55750601d6102b4565b50601c92915050565b600061090b600183610bcb565b915061091961019083610b5a565b610924606484610b5a565b61092f600485610b5a565b6109399190610bcb565b6102b49190610b82565b600060076109546201518084610b5a565b6102aa906004610b82565b6000603c6102aa8184610b5a565b604051806101800160405280600c906020820280368337509192915050565b60006020828403121561099e57600080fd5b5035919050565b803561ffff811681146109b757600080fd5b919050565b803560ff811681146109b757600080fd5b600080600080600060a086880312156109e557600080fd5b6109ee866109a5565b94506109fc602087016109bc565b9350610a0a604087016109bc565b9250610a18606087016109bc565b9150610a26608087016109bc565b90509295509295909350565b60008060008060808587031215610a4857600080fd5b610a51856109a5565b9350610a5f602086016109bc565b9250610a6d604086016109bc565b9150610a7b606086016109bc565b905092959194509250565b60008060008060008060c08789031215610a9f57600080fd5b505084359660208601359650604086013595606081013595506080810135945060a0013592509050565b600080600060608486031215610ade57600080fd5b610ae7846109a5565b9250610af5602085016109bc565b9150610b03604085016109bc565b90509250925092565b60008060408385031215610b1f57600080fd5b50508035926020909101359150565b634e487b7160e01b600052601260045260246000fd5b634e487b7160e01b600052601160045260246000fd5b600082610b6957610b69610b2e565b500490565b600082610b7d57610b7d610b2e565b500690565b60008219821115610b9557610b95610b44565b500190565b6000600019821415610bae57610bae610b44565b5060010190565b634e487b7160e01b600052603260045260246000fd5b600082821015610bdd57610bdd610b44565b500390565b6000816000190483118215151615610bfc57610bfc610b44565b50029056fea264697066735822122035f495d6444a584dabb54436e42f7abdb5ab4090ba2df72ff13f66deff569dad64736f6c634300080b0033",
			"opcodes": "PUSH1 0x80 PUSH1 0x40 MSTORE CALLVALUE DUP1 ISZERO PUSH2 0x10 JUMPI PUSH1 0x0 DUP1 REVERT JUMPDEST POP PUSH2 0xC37 DUP1 PUSH2 0x20 PUSH1 0x0 CODECOPY PUSH1 0x0 RETURN INVALID PUSH1 0x80 PUSH1 0x40 MSTORE CALLVALUE DUP1 ISZERO PUSH2 0x10 JUMPI PUSH1 0x0 DUP1 REVERT JUMPDEST POP PUSH1 0x4 CALLDATASIZE LT PUSH2 0xF5 JUMPI PUSH1 0x0 CALLDATALOAD PUSH1 0xE0 SHR DUP1 PUSH4 0x92D66313 GT PUSH2 0x97 JUMPI DUP1 PUSH4 0xBE9AFAC7 GT PUSH2 0x66 JUMPI DUP1 PUSH4 0xBE9AFAC7 EQ PUSH2 0x244 JUMPI DUP1 PUSH4 0xD0F2D719 EQ PUSH2 0x257 JUMPI DUP1 PUSH4 0xFA879BF0 EQ PUSH2 0x26A JUMPI DUP1 PUSH4 0xFA93F883 EQ PUSH2 0x27D JUMPI PUSH1 0x0 DUP1 REVERT JUMPDEST DUP1 PUSH4 0x92D66313 EQ PUSH2 0x192 JUMPI DUP1 PUSH4 0xA324AD24 EQ PUSH2 0x1A5 JUMPI DUP1 PUSH4 0xA3EA1B91 EQ PUSH2 0x1B8 JUMPI DUP1 PUSH4 0xB8D16DBC EQ PUSH2 0x221 JUMPI PUSH1 0x0 DUP1 REVERT JUMPDEST DUP1 PUSH4 0x7F791833 GT PUSH2 0xD3 JUMPI DUP1 PUSH4 0x7F791833 EQ PUSH2 0x146 JUMPI DUP1 PUSH4 0x81D6284C EQ PUSH2 0x159 JUMPI DUP1 PUSH4 0x8AA001FC EQ PUSH2 0x16C JUMPI DUP1 PUSH4 0x8C8D98A0 EQ PUSH2 0x17F JUMPI PUSH1 0x0 DUP1 REVERT JUMPDEST DUP1 PUSH4 0x3E239E1A EQ PUSH2 0xFA JUMPI DUP1 PUSH4 0x62BA9687 EQ PUSH2 0x120 JUMPI DUP1 PUSH4 0x65C72840 EQ PUSH2 0x133 JUMPI JUMPDEST PUSH1 0x0 DUP1 REVERT JUMPDEST PUSH2 0x10D PUSH2 0x108 CALLDATASIZE PUSH1 0x4 PUSH2 0x98C JUMP JUMPDEST PUSH2 0x290 JUMP JUMPDEST PUSH1 0x40 MLOAD SWAP1 DUP2 MSTORE PUSH1 0x20 ADD JUMPDEST PUSH1 0x40 MLOAD DUP1 SWAP2 SUB SWAP1 RETURN JUMPDEST PUSH2 0x10D PUSH2 0x12E CALLDATASIZE PUSH1 0x4 PUSH2 0x9CD JUMP JUMPDEST PUSH2 0x2BA JUMP JUMPDEST PUSH2 0x10D PUSH2 0x141 CALLDATASIZE PUSH1 0x4 PUSH2 0x98C JUMP JUMPDEST PUSH2 0x2E5 JUMP JUMPDEST PUSH2 0x10D PUSH2 0x154 CALLDATASIZE PUSH1 0x4 PUSH2 0xA32 JUMP JUMPDEST PUSH2 0x2FA JUMP JUMPDEST PUSH2 0x10D PUSH2 0x167 CALLDATASIZE PUSH1 0x4 PUSH2 0xA86 JUMP JUMPDEST PUSH2 0x321 JUMP JUMPDEST PUSH2 0x10D PUSH2 0x17A CALLDATASIZE PUSH1 0x4 PUSH2 0x98C JUMP JUMPDEST PUSH2 0x4B0 JUMP JUMPDEST PUSH2 0x10D PUSH2 0x18D CALLDATASIZE PUSH1 0x4 PUSH2 0xAC9 JUMP JUMPDEST PUSH2 0x4BD JUMP JUMPDEST PUSH2 0x10D PUSH2 0x1A0 CALLDATASIZE PUSH1 0x4 PUSH2 0x98C JUMP JUMPDEST PUSH2 0x4E1 JUMP JUMPDEST PUSH2 0x10D PUSH2 0x1B3 CALLDATASIZE PUSH1 0x4 PUSH2 0x98C JUMP JUMPDEST PUSH2 0x5D2 JUMP JUMPDEST PUSH2 0x1CB PUSH2 0x1C6 CALLDATASIZE PUSH1 0x4 PUSH2 0x98C JUMP JUMPDEST PUSH2 0x5E7 JUMP JUMPDEST PUSH1 0x40 MLOAD PUSH2 0x117 SWAP2 SWAP1 PUSH1 0x0 PUSH1 0xE0 DUP3 ADD SWAP1 POP DUP3 MLOAD DUP3 MSTORE PUSH1 0x20 DUP4 ADD MLOAD PUSH1 0x20 DUP4 ADD MSTORE PUSH1 0x40 DUP4 ADD MLOAD PUSH1 0x40 DUP4 ADD MSTORE PUSH1 0x60 DUP4 ADD MLOAD PUSH1 0x60 DUP4 ADD MSTORE PUSH1 0x80 DUP4 ADD MLOAD PUSH1 0x80 DUP4 ADD MSTORE PUSH1 0xA0 DUP4 ADD MLOAD PUSH1 0xA0 DUP4 ADD MSTORE PUSH1 0xC0 DUP4 ADD MLOAD PUSH1 0xC0 DUP4 ADD MSTORE SWAP3 SWAP2 POP POP JUMP JUMPDEST PUSH2 0x234 PUSH2 0x22F CALLDATASIZE PUSH1 0x4 PUSH2 0x98C JUMP JUMPDEST PUSH2 0x7B0 JUMP JUMPDEST PUSH1 0x40 MLOAD SWAP1 ISZERO ISZERO DUP2 MSTORE PUSH1 0x20 ADD PUSH2 0x117 JUMP JUMPDEST PUSH2 0x10D PUSH2 0x252 CALLDATASIZE PUSH1 0x4 PUSH2 0xB0C JUMP JUMPDEST PUSH2 0x803 JUMP JUMPDEST PUSH2 0x10D PUSH2 0x265 CALLDATASIZE PUSH1 0x4 PUSH2 0x98C JUMP JUMPDEST PUSH2 0x8FE JUMP JUMPDEST PUSH2 0x10D PUSH2 0x278 CALLDATASIZE PUSH1 0x4 PUSH2 0x98C JUMP JUMPDEST PUSH2 0x943 JUMP JUMPDEST PUSH2 0x10D PUSH2 0x28B CALLDATASIZE PUSH1 0x4 PUSH2 0x98C JUMP JUMPDEST PUSH2 0x95F JUMP JUMPDEST PUSH1 0x0 PUSH1 0x18 PUSH1 0x3C PUSH2 0x2A0 DUP2 DUP6 PUSH2 0xB5A JUMP JUMPDEST PUSH2 0x2AA SWAP2 SWAP1 PUSH2 0xB5A JUMP JUMPDEST PUSH2 0x2B4 SWAP2 SWAP1 PUSH2 0xB6E JUMP JUMPDEST SWAP3 SWAP2 POP POP JUMP JUMPDEST PUSH1 0x0 PUSH2 0x2DB DUP7 PUSH2 0xFFFF AND DUP7 PUSH1 0xFF AND DUP7 PUSH1 0xFF AND DUP7 PUSH1 0xFF AND DUP7 PUSH1 0xFF AND PUSH1 0x0 PUSH2 0x321 JUMP JUMPDEST SWAP7 SWAP6 POP POP POP POP POP POP JUMP JUMPDEST PUSH1 0x0 PUSH2 0x2F0 DUP3 PUSH2 0x5E7 JUMP JUMPDEST PUSH1 0x40 ADD MLOAD SWAP3 SWAP2 POP POP JUMP JUMPDEST PUSH1 0x0 PUSH2 0x318 DUP6 PUSH2 0xFFFF AND DUP6 PUSH1 0xFF AND DUP6 PUSH1 0xFF AND DUP6 PUSH1 0xFF AND PUSH1 0x0 DUP1 PUSH2 0x321 JUMP JUMPDEST SWAP6 SWAP5 POP POP POP POP POP JUMP JUMPDEST PUSH1 0x0 PUSH2 0x7B2 JUMPDEST DUP8 DUP2 LT ISZERO PUSH2 0x375 JUMPI PUSH2 0x338 DUP2 PUSH2 0x7B0 JUMP JUMPDEST ISZERO PUSH2 0x352 JUMPI PUSH2 0x34B PUSH4 0x1E28500 DUP4 PUSH2 0xB82 JUMP JUMPDEST SWAP2 POP PUSH2 0x363 JUMP JUMPDEST PUSH2 0x360 PUSH4 0x1E13380 DUP4 PUSH2 0xB82 JUMP JUMPDEST SWAP2 POP JUMPDEST DUP1 PUSH2 0x36D DUP2 PUSH2 0xB9A JUMP JUMPDEST SWAP2 POP POP PUSH2 0x327 JUMP JUMPDEST PUSH2 0x37D PUSH2 0x96D JUMP JUMPDEST PUSH1 0x1F DUP2 MSTORE PUSH2 0x38A DUP10 PUSH2 0x7B0 JUMP JUMPDEST ISZERO PUSH2 0x39B JUMPI PUSH1 0x1D PUSH1 0x20 DUP3 ADD MSTORE PUSH2 0x3A3 JUMP JUMPDEST PUSH1 0x1C PUSH1 0x20 DUP3 ADD MSTORE JUMPDEST PUSH1 0x1F PUSH1 0x40 DUP3 ADD DUP2 SWAP1 MSTORE PUSH1 0x1E PUSH1 0x60 DUP4 ADD DUP2 SWAP1 MSTORE PUSH1 0x80 DUP4 ADD DUP3 SWAP1 MSTORE PUSH1 0xA0 DUP4 ADD DUP2 SWAP1 MSTORE PUSH1 0xC0 DUP4 ADD DUP3 SWAP1 MSTORE PUSH1 0xE0 DUP4 ADD DUP3 SWAP1 MSTORE PUSH2 0x100 DUP4 ADD DUP2 SWAP1 MSTORE PUSH2 0x120 DUP4 ADD DUP3 SWAP1 MSTORE PUSH2 0x140 DUP4 ADD MSTORE PUSH2 0x160 DUP3 ADD MSTORE PUSH1 0x1 SWAP2 POP JUMPDEST DUP8 DUP3 LT ISZERO PUSH2 0x446 JUMPI DUP1 PUSH2 0x406 PUSH1 0x1 DUP5 PUSH2 0xBCB JUMP JUMPDEST PUSH1 0xC DUP2 LT PUSH2 0x416 JUMPI PUSH2 0x416 PUSH2 0xBB5 JUMP JUMPDEST PUSH1 0x20 MUL ADD MLOAD PUSH2 0x428 SWAP1 PUSH3 0x15180 PUSH2 0xBE2 JUMP JUMPDEST PUSH2 0x432 SWAP1 DUP5 PUSH2 0xB82 JUMP JUMPDEST SWAP3 POP DUP2 PUSH2 0x43E DUP2 PUSH2 0xB9A JUMP JUMPDEST SWAP3 POP POP PUSH2 0x3F2 JUMP JUMPDEST PUSH2 0x451 PUSH1 0x1 DUP9 PUSH2 0xBCB JUMP JUMPDEST PUSH2 0x45E SWAP1 PUSH3 0x15180 PUSH2 0xBE2 JUMP JUMPDEST PUSH2 0x468 SWAP1 DUP5 PUSH2 0xB82 JUMP JUMPDEST SWAP3 POP PUSH2 0x476 DUP7 PUSH2 0xE10 PUSH2 0xBE2 JUMP JUMPDEST PUSH2 0x480 SWAP1 DUP5 PUSH2 0xB82 JUMP JUMPDEST SWAP3 POP PUSH2 0x48D DUP6 PUSH1 0x3C PUSH2 0xBE2 JUMP JUMPDEST PUSH2 0x497 SWAP1 DUP5 PUSH2 0xB82 JUMP JUMPDEST SWAP3 POP PUSH2 0x4A3 DUP5 DUP5 PUSH2 0xB82 JUMP JUMPDEST SWAP10 SWAP9 POP POP POP POP POP POP POP POP POP JUMP JUMPDEST PUSH1 0x0 PUSH2 0x2B4 PUSH1 0x3C DUP4 PUSH2 0xB6E JUMP JUMPDEST PUSH1 0x0 PUSH2 0x4D9 DUP5 PUSH2 0xFFFF AND DUP5 PUSH1 0xFF AND DUP5 PUSH1 0xFF AND PUSH1 0x0 DUP1 PUSH1 0x0 PUSH2 0x321 JUMP JUMPDEST SWAP5 SWAP4 POP POP POP POP JUMP JUMPDEST PUSH1 0x0 DUP1 DUP1 DUP1 PUSH2 0x4F4 PUSH4 0x1E13380 DUP7 PUSH2 0xB5A JUMP JUMPDEST PUSH2 0x500 SWAP1 PUSH2 0x7B2 PUSH2 0xB82 JUMP JUMPDEST SWAP2 POP PUSH2 0x50D PUSH2 0x7B2 PUSH2 0x8FE JUMP JUMPDEST PUSH2 0x516 DUP4 PUSH2 0x8FE JUMP JUMPDEST PUSH2 0x520 SWAP2 SWAP1 PUSH2 0xBCB JUMP JUMPDEST SWAP1 POP PUSH2 0x530 PUSH4 0x1E28500 DUP3 PUSH2 0xBE2 JUMP JUMPDEST PUSH2 0x53A SWAP1 DUP5 PUSH2 0xB82 JUMP JUMPDEST SWAP3 POP DUP1 PUSH2 0x549 PUSH2 0x7B2 DUP5 PUSH2 0xBCB JUMP JUMPDEST PUSH2 0x553 SWAP2 SWAP1 PUSH2 0xBCB JUMP JUMPDEST PUSH2 0x561 SWAP1 PUSH4 0x1E13380 PUSH2 0xBE2 JUMP JUMPDEST PUSH2 0x56B SWAP1 DUP5 PUSH2 0xB82 JUMP JUMPDEST SWAP3 POP JUMPDEST DUP5 DUP4 GT ISZERO PUSH2 0x5CA JUMPI PUSH2 0x58D PUSH2 0x584 PUSH1 0x1 DUP5 PUSH2 0xBCB JUMP JUMPDEST PUSH2 0xFFFF AND PUSH2 0x7B0 JUMP JUMPDEST ISZERO PUSH2 0x5A7 JUMPI PUSH2 0x5A0 PUSH4 0x1E28500 DUP5 PUSH2 0xBCB JUMP JUMPDEST SWAP3 POP PUSH2 0x5B8 JUMP JUMPDEST PUSH2 0x5B5 PUSH4 0x1E28500 DUP5 PUSH2 0xBCB JUMP JUMPDEST SWAP3 POP JUMPDEST PUSH2 0x5C3 PUSH1 0x1 DUP4 PUSH2 0xBCB JUMP JUMPDEST SWAP2 POP PUSH2 0x56E JUMP JUMPDEST POP SWAP4 SWAP3 POP POP POP JUMP JUMPDEST PUSH1 0x0 PUSH2 0x5DD DUP3 PUSH2 0x5E7 JUMP JUMPDEST PUSH1 0x20 ADD MLOAD SWAP3 SWAP2 POP POP JUMP JUMPDEST PUSH2 0x627 PUSH1 0x40 MLOAD DUP1 PUSH1 0xE0 ADD PUSH1 0x40 MSTORE DUP1 PUSH1 0x0 DUP2 MSTORE PUSH1 0x20 ADD PUSH1 0x0 DUP2 MSTORE PUSH1 0x20 ADD PUSH1 0x0 DUP2 MSTORE PUSH1 0x20 ADD PUSH1 0x0 DUP2 MSTORE PUSH1 0x20 ADD PUSH1 0x0 DUP2 MSTORE PUSH1 0x20 ADD PUSH1 0x0 DUP2 MSTORE PUSH1 0x20 ADD PUSH1 0x0 DUP2 MSTORE POP SWAP1 JUMP JUMPDEST PUSH1 0x0 DUP1 DUP1 PUSH2 0x634 DUP6 PUSH2 0x4E1 JUMP JUMPDEST DUP5 MSTORE PUSH2 0x641 PUSH2 0x7B2 PUSH2 0x8FE JUMP JUMPDEST DUP5 MLOAD PUSH2 0x64C SWAP1 PUSH2 0x8FE JUMP JUMPDEST PUSH2 0x656 SWAP2 SWAP1 PUSH2 0xBCB JUMP JUMPDEST SWAP2 POP PUSH2 0x666 DUP3 PUSH4 0x1E28500 PUSH2 0xBE2 JUMP JUMPDEST PUSH2 0x670 SWAP1 DUP5 PUSH2 0xB82 JUMP JUMPDEST SWAP3 POP DUP2 PUSH2 0x7B2 DUP6 PUSH1 0x0 ADD MLOAD PUSH2 0x685 SWAP2 SWAP1 PUSH2 0xBCB JUMP JUMPDEST PUSH2 0x68F SWAP2 SWAP1 PUSH2 0xBCB JUMP JUMPDEST PUSH2 0x69D SWAP1 PUSH4 0x1E13380 PUSH2 0xBE2 JUMP JUMPDEST PUSH2 0x6A7 SWAP1 DUP5 PUSH2 0xB82 JUMP JUMPDEST SWAP3 POP PUSH1 0x0 DUP1 SWAP2 POP JUMPDEST PUSH1 0xC DUP3 GT PUSH2 0x70F JUMPI PUSH2 0x6C5 DUP3 DUP7 PUSH1 0x0 ADD MLOAD PUSH2 0x803 JUMP JUMPDEST PUSH2 0x6D2 SWAP1 PUSH3 0x15180 PUSH2 0xBE2 JUMP JUMPDEST SWAP1 POP DUP6 PUSH2 0x6DF DUP6 DUP4 PUSH2 0xB82 JUMP JUMPDEST GT ISZERO PUSH2 0x6F1 JUMPI PUSH1 0x20 DUP6 ADD DUP3 SWAP1 MSTORE PUSH2 0x70F JUMP JUMPDEST PUSH2 0x6FB DUP2 DUP6 PUSH2 0xB82 JUMP JUMPDEST SWAP4 POP DUP2 PUSH2 0x707 DUP2 PUSH2 0xB9A JUMP JUMPDEST SWAP3 POP POP PUSH2 0x6AF JUMP JUMPDEST PUSH1 0x0 SWAP2 POP JUMPDEST PUSH2 0x726 DUP6 PUSH1 0x20 ADD MLOAD DUP7 PUSH1 0x0 ADD MLOAD PUSH2 0x803 JUMP JUMPDEST DUP3 LT ISZERO PUSH2 0x76E JUMPI DUP6 PUSH2 0x73B DUP6 PUSH3 0x15180 PUSH2 0xB82 JUMP JUMPDEST GT ISZERO PUSH2 0x74D JUMPI PUSH1 0x1 PUSH1 0x40 DUP7 ADD MSTORE PUSH2 0x76E JUMP JUMPDEST PUSH2 0x75A PUSH3 0x15180 DUP6 PUSH2 0xB82 JUMP JUMPDEST SWAP4 POP DUP2 PUSH2 0x766 DUP2 PUSH2 0xB9A JUMP JUMPDEST SWAP3 POP POP PUSH2 0x714 JUMP JUMPDEST PUSH2 0x777 DUP7 PUSH2 0x290 JUMP JUMPDEST PUSH1 0x60 DUP7 ADD MSTORE PUSH2 0x785 DUP7 PUSH2 0x95F JUMP JUMPDEST PUSH1 0x80 DUP7 ADD MSTORE PUSH2 0x793 DUP7 PUSH2 0x4B0 JUMP JUMPDEST PUSH1 0xA0 DUP7 ADD MSTORE PUSH2 0x7A1 DUP7 PUSH2 0x943 JUMP JUMPDEST PUSH1 0xC0 DUP7 ADD MSTORE POP SWAP3 SWAP5 SWAP4 POP POP POP POP JUMP JUMPDEST PUSH1 0x0 PUSH2 0x7BD PUSH1 0x4 DUP4 PUSH2 0xB6E JUMP JUMPDEST ISZERO PUSH2 0x7CA JUMPI POP PUSH1 0x0 SWAP2 SWAP1 POP JUMP JUMPDEST PUSH2 0x7D5 PUSH1 0x64 DUP4 PUSH2 0xB6E JUMP JUMPDEST ISZERO PUSH2 0x7E2 JUMPI POP PUSH1 0x1 SWAP2 SWAP1 POP JUMP JUMPDEST PUSH2 0x7EE PUSH2 0x190 DUP4 PUSH2 0xB6E JUMP JUMPDEST ISZERO PUSH2 0x7FB JUMPI POP PUSH1 0x0 SWAP2 SWAP1 POP JUMP JUMPDEST POP PUSH1 0x1 SWAP2 SWAP1 POP JUMP JUMPDEST PUSH1 0x0 PUSH1 0xC DUP4 GT ISZERO PUSH2 0x85A JUMPI PUSH1 0x40 MLOAD PUSH3 0x461BCD PUSH1 0xE5 SHL DUP2 MSTORE PUSH1 0x20 PUSH1 0x4 DUP3 ADD MSTORE PUSH1 0x1C PUSH1 0x24 DUP3 ADD MSTORE PUSH32 0x4572726F723A496E76616C696420417267756D656E7420436F756E7400000000 PUSH1 0x44 DUP3 ADD MSTORE PUSH1 0x64 ADD PUSH1 0x40 MLOAD DUP1 SWAP2 SUB SWAP1 REVERT JUMPDEST DUP3 PUSH1 0x1 EQ DUP1 PUSH2 0x869 JUMPI POP DUP3 PUSH1 0x3 EQ JUMPDEST DUP1 PUSH2 0x874 JUMPI POP DUP3 PUSH1 0x5 EQ JUMPDEST DUP1 PUSH2 0x87F JUMPI POP DUP3 PUSH1 0x7 EQ JUMPDEST DUP1 PUSH2 0x88A JUMPI POP DUP3 PUSH1 0x8 EQ JUMPDEST DUP1 PUSH2 0x895 JUMPI POP DUP3 PUSH1 0xA EQ JUMPDEST DUP1 PUSH2 0x8A0 JUMPI POP DUP3 PUSH1 0xC EQ JUMPDEST ISZERO PUSH2 0x8AD JUMPI POP PUSH1 0x1F PUSH2 0x2B4 JUMP JUMPDEST DUP3 PUSH1 0x4 EQ DUP1 PUSH2 0x8BC JUMPI POP DUP3 PUSH1 0x6 EQ JUMPDEST DUP1 PUSH2 0x8C7 JUMPI POP DUP3 PUSH1 0x9 EQ JUMPDEST DUP1 PUSH2 0x8D2 JUMPI POP DUP3 PUSH1 0xB EQ JUMPDEST ISZERO PUSH2 0x8DF JUMPI POP PUSH1 0x1E PUSH2 0x2B4 JUMP JUMPDEST PUSH2 0x8E8 DUP3 PUSH2 0x7B0 JUMP JUMPDEST ISZERO PUSH2 0x8F5 JUMPI POP PUSH1 0x1D PUSH2 0x2B4 JUMP JUMPDEST POP PUSH1 0x1C SWAP3 SWAP2 POP POP JUMP JUMPDEST PUSH1 0x0 PUSH2 0x90B PUSH1 0x1 DUP4 PUSH2 0xBCB JUMP JUMPDEST SWAP2 POP PUSH2 0x919 PUSH2 0x190 DUP4 PUSH2 0xB5A JUMP JUMPDEST PUSH2 0x924 PUSH1 0x64 DUP5 PUSH2 0xB5A JUMP JUMPDEST PUSH2 0x92F PUSH1 0x4 DUP6 PUSH2 0xB5A JUMP JUMPDEST PUSH2 0x939 SWAP2 SWAP1 PUSH2 0xBCB JUMP JUMPDEST PUSH2 0x2B4 SWAP2 SWAP1 PUSH2 0xB82 JUMP JUMPDEST PUSH1 0x0 PUSH1 0x7 PUSH2 0x954 PUSH3 0x15180 DUP5 PUSH2 0xB5A JUMP JUMPDEST PUSH2 0x2AA SWAP1 PUSH1 0x4 PUSH2 0xB82 JUMP JUMPDEST PUSH1 0x0 PUSH1 0x3C PUSH2 0x2AA DUP2 DUP5 PUSH2 0xB5A JUMP JUMPDEST PUSH1 0x40 MLOAD DUP1 PUSH2 0x180 ADD PUSH1 0x40 MSTORE DUP1 PUSH1 0xC SWAP1 PUSH1 0x20 DUP3 MUL DUP1 CALLDATASIZE DUP4 CALLDATACOPY POP SWAP2 SWAP3 SWAP2 POP POP JUMP JUMPDEST PUSH1 0x0 PUSH1 0x20 DUP3 DUP5 SUB SLT ISZERO PUSH2 0x99E JUMPI PUSH1 0x0 DUP1 REVERT JUMPDEST POP CALLDATALOAD SWAP2 SWAP1 POP JUMP JUMPDEST DUP1 CALLDATALOAD PUSH2 0xFFFF DUP2 AND DUP2 EQ PUSH2 0x9B7 JUMPI PUSH1 0x0 DUP1 REVERT JUMPDEST SWAP2 SWAP1 POP JUMP JUMPDEST DUP1 CALLDATALOAD PUSH1 0xFF DUP2 AND DUP2 EQ PUSH2 0x9B7 JUMPI PUSH1 0x0 DUP1 REVERT JUMPDEST PUSH1 0x0 DUP1 PUSH1 0x0 DUP1 PUSH1 0x0 PUSH1 0xA0 DUP7 DUP9 SUB SLT ISZERO PUSH2 0x9E5 JUMPI PUSH1 0x0 DUP1 REVERT JUMPDEST PUSH2 0x9EE DUP7 PUSH2 0x9A5 JUMP JUMPDEST SWAP5 POP PUSH2 0x9FC PUSH1 0x20 DUP8 ADD PUSH2 0x9BC JUMP JUMPDEST SWAP4 POP PUSH2 0xA0A PUSH1 0x40 DUP8 ADD PUSH2 0x9BC JUMP JUMPDEST SWAP3 POP PUSH2 0xA18 PUSH1 0x60 DUP8 ADD PUSH2 0x9BC JUMP JUMPDEST SWAP2 POP PUSH2 0xA26 PUSH1 0x80 DUP8 ADD PUSH2 0x9BC JUMP JUMPDEST SWAP1 POP SWAP3 SWAP6 POP SWAP3 SWAP6 SWAP1 SWAP4 POP JUMP JUMPDEST PUSH1 0x0 DUP1 PUSH1 0x0 DUP1 PUSH1 0x80 DUP6 DUP8 SUB SLT ISZERO PUSH2 0xA48 JUMPI PUSH1 0x0 DUP1 REVERT JUMPDEST PUSH2 0xA51 DUP6 PUSH2 0x9A5 JUMP JUMPDEST SWAP4 POP PUSH2 0xA5F PUSH1 0x20 DUP7 ADD PUSH2 0x9BC JUMP JUMPDEST SWAP3 POP PUSH2 0xA6D PUSH1 0x40 DUP7 ADD PUSH2 0x9BC JUMP JUMPDEST SWAP2 POP PUSH2 0xA7B PUSH1 0x60 DUP7 ADD PUSH2 0x9BC JUMP JUMPDEST SWAP1 POP SWAP3 SWAP6 SWAP2 SWAP5 POP SWAP3 POP JUMP JUMPDEST PUSH1 0x0 DUP1 PUSH1 0x0 DUP1 PUSH1 0x0 DUP1 PUSH1 0xC0 DUP8 DUP10 SUB SLT ISZERO PUSH2 0xA9F JUMPI PUSH1 0x0 DUP1 REVERT JUMPDEST POP POP DUP5 CALLDATALOAD SWAP7 PUSH1 0x20 DUP7 ADD CALLDATALOAD SWAP7 POP PUSH1 0x40 DUP7 ADD CALLDATALOAD SWAP6 PUSH1 0x60 DUP2 ADD CALLDATALOAD SWAP6 POP PUSH1 0x80 DUP2 ADD CALLDATALOAD SWAP5 POP PUSH1 0xA0 ADD CALLDATALOAD SWAP3 POP SWAP1 POP JUMP JUMPDEST PUSH1 0x0 DUP1 PUSH1 0x0 PUSH1 0x60 DUP5 DUP7 SUB SLT ISZERO PUSH2 0xADE JUMPI PUSH1 0x0 DUP1 REVERT JUMPDEST PUSH2 0xAE7 DUP5 PUSH2 0x9A5 JUMP JUMPDEST SWAP3 POP PUSH2 0xAF5 PUSH1 0x20 DUP6 ADD PUSH2 0x9BC JUMP JUMPDEST SWAP2 POP PUSH2 0xB03 PUSH1 0x40 DUP6 ADD PUSH2 0x9BC JUMP JUMPDEST SWAP1 POP SWAP3 POP SWAP3 POP SWAP3 JUMP JUMPDEST PUSH1 0x0 DUP1 PUSH1 0x40 DUP4 DUP6 SUB SLT ISZERO PUSH2 0xB1F JUMPI PUSH1 0x0 DUP1 REVERT JUMPDEST POP POP DUP1 CALLDATALOAD SWAP3 PUSH1 0x20 SWAP1 SWAP2 ADD CALLDATALOAD SWAP2 POP JUMP JUMPDEST PUSH4 0x4E487B71 PUSH1 0xE0 SHL PUSH1 0x0 MSTORE PUSH1 0x12 PUSH1 0x4 MSTORE PUSH1 0x24 PUSH1 0x0 REVERT JUMPDEST PUSH4 0x4E487B71 PUSH1 0xE0 SHL PUSH1 0x0 MSTORE PUSH1 0x11 PUSH1 0x4 MSTORE PUSH1 0x24 PUSH1 0x0 REVERT JUMPDEST PUSH1 0x0 DUP3 PUSH2 0xB69 JUMPI PUSH2 0xB69 PUSH2 0xB2E JUMP JUMPDEST POP DIV SWAP1 JUMP JUMPDEST PUSH1 0x0 DUP3 PUSH2 0xB7D JUMPI PUSH2 0xB7D PUSH2 0xB2E JUMP JUMPDEST POP MOD SWAP1 JUMP JUMPDEST PUSH1 0x0 DUP3 NOT DUP3 GT ISZERO PUSH2 0xB95 JUMPI PUSH2 0xB95 PUSH2 0xB44 JUMP JUMPDEST POP ADD SWAP1 JUMP JUMPDEST PUSH1 0x0 PUSH1 0x0 NOT DUP3 EQ ISZERO PUSH2 0xBAE JUMPI PUSH2 0xBAE PUSH2 0xB44 JUMP JUMPDEST POP PUSH1 0x1 ADD SWAP1 JUMP JUMPDEST PUSH4 0x4E487B71 PUSH1 0xE0 SHL PUSH1 0x0 MSTORE PUSH1 0x32 PUSH1 0x4 MSTORE PUSH1 0x24 PUSH1 0x0 REVERT JUMPDEST PUSH1 0x0 DUP3 DUP3 LT ISZERO PUSH2 0xBDD JUMPI PUSH2 0xBDD PUSH2 0xB44 JUMP JUMPDEST POP SUB SWAP1 JUMP JUMPDEST PUSH1 0x0 DUP2 PUSH1 0x0 NOT DIV DUP4 GT DUP3 ISZERO ISZERO AND ISZERO PUSH2 0xBFC JUMPI PUSH2 0xBFC PUSH2 0xB44 JUMP JUMPDEST POP MUL SWAP1 JUMP INVALID LOG2 PUSH5 0x6970667358 0x22 SLT KECCAK256 CALLDATALOAD DELEGATECALL SWAP6 0xD6 DIFFICULTY 0x4A PC 0x4D 0xAB 0xB5 DIFFICULTY CALLDATASIZE 0xE4 0x2F PUSH27 0xBDB5AB4090BA2DF72FF13F66DEFF569DAD64736F6C634300080B00 CALLER "
		},
		"gasEstimates": {
			"creation": {
				"codeDepositCost": "625400",
				"executionCost": "657",
				"totalCost": "626057"
			},
			"external": {
				"TotalLeapYearTillNow(uint256)": "infinite",
				"getDay(uint256)": "infinite",
				"getDaysInMonth(uint256,uint256)": "infinite",
				"getHour(uint256)": "infinite",
				"getMinute(uint256)": "491",
				"getMonth(uint256)": "infinite",
				"getSecond(uint256)": "407",
				"getWeekDays(uint256)": "539",
				"getYear(uint256)": "infinite",
				"isLeapYear(uint256)": "infinite",
				"parseTimeStamp(uint256)": "infinite",
				"toTimeStamp(uint256,uint256,uint256,uint256,uint256,uint256)": "infinite",
				"toTimestamp(uint16,uint8,uint8)": "infinite",
				"toTimestamp(uint16,uint8,uint8,uint8)": "infinite",
				"toTimestamp(uint16,uint8,uint8,uint8,uint8)": "infinite"
			}
		},
		"methodIdentifiers": {
			"TotalLeapYearTillNow(uint256)": "d0f2d719",
			"getDay(uint256)": "65c72840",
			"getDaysInMonth(uint256,uint256)": "be9afac7",
			"getHour(uint256)": "3e239e1a",
			"getMinute(uint256)": "fa93f883",
			"getMonth(uint256)": "a324ad24",
			"getSecond(uint256)": "8aa001fc",
			"getWeekDays(uint256)": "fa879bf0",
			"getYear(uint256)": "92d66313",
			"isLeapYear(uint256)": "b8d16dbc",
			"parseTimeStamp(uint256)": "a3ea1b91",
			"toTimeStamp(uint256,uint256,uint256,uint256,uint256,uint256)": "81d6284c",
			"toTimestamp(uint16,uint8,uint8)": "8c8d98a0",
			"toTimestamp(uint16,uint8,uint8,uint8)": "7f791833",
			"toTimestamp(uint16,uint8,uint8,uint8,uint8)": "62ba9687"
		}
	},
	"abi": [
		{
			"inputs": [
				{
					"internalType": "uint256",
					"name": "_year",
					"type": "uint256"
				}
			],
			"name": "TotalLeapYearTillNow",
			"outputs": [
				{
					"internalType": "uint256",
					"name": "",
					"type": "uint256"
				}
			],
			"stateMutability": "pure",
			"type": "function"
		},
		{
			"inputs": [
				{
					"internalType": "uint256",
					"name": "timeStamp",
					"type": "uint256"
				}
			],
			"name": "getDay",
			"outputs": [
				{
					"internalType": "uint256",
					"name": "",
					"type": "uint256"
				}
			],
			"stateMutability": "pure",
			"type": "function"
		},
		{
			"inputs": [
				{
					"internalType": "uint256",
					"name": "_month",
					"type": "uint256"
				},
				{
					"internalType": "uint256",
					"name": "_year",
					"type": "uint256"
				}
			],
			"name": "getDaysInMonth",
			"outputs": [
				{
					"internalType": "uint256",
					"name": "",
					"type": "uint256"
				}
			],
			"stateMutability": "pure",
			"type": "function"
		},
		{
			"inputs": [
				{
					"internalType": "uint256",
					"name": "timeStamp",
					"type": "uint256"
				}
			],
			"name": "getHour",
			"outputs": [
				{
					"internalType": "uint256",
					"name": "",
					"type": "uint256"
				}
			],
			"stateMutability": "pure",
			"type": "function"
		},
		{
			"inputs": [
				{
					"internalType": "uint256",
					"name": "timeStamp",
					"type": "uint256"
				}
			],
			"name": "getMinute",
			"outputs": [
				{
					"internalType": "uint256",
					"name": "",
					"type": "uint256"
				}
			],
			"stateMutability": "pure",
			"type": "function"
		},
		{
			"inputs": [
				{
					"internalType": "uint256",
					"name": "timeStamp",
					"type": "uint256"
				}
			],
			"name": "getMonth",
			"outputs": [
				{
					"internalType": "uint256",
					"name": "",
					"type": "uint256"
				}
			],
			"stateMutability": "pure",
			"type": "function"
		},
		{
			"inputs": [
				{
					"internalType": "uint256",
					"name": "timeStamp",
					"type": "uint256"
				}
			],
			"name": "getSecond",
			"outputs": [
				{
					"internalType": "uint256",
					"name": "",
					"type": "uint256"
				}
			],
			"stateMutability": "pure",
			"type": "function"
		},
		{
			"inputs": [
				{
					"internalType": "uint256",
					"name": "timeStamp",
					"type": "uint256"
				}
			],
			"name": "getWeekDays",
			"outputs": [
				{
					"internalType": "uint256",
					"name": "",
					"type": "uint256"
				}
			],
			"stateMutability": "pure",
			"type": "function"
		},
		{
			"inputs": [
				{
					"internalType": "uint256",
					"name": "timeStamp",
					"type": "uint256"
				}
			],
			"name": "getYear",
			"outputs": [
				{
					"internalType": "uint256",
					"name": "",
					"type": "uint256"
				}
			],
			"stateMutability": "pure",
			"type": "function"
		},
		{
			"inputs": [
				{
					"internalType": "uint256",
					"name": "_year",
					"type": "uint256"
				}
			],
			"name": "isLeapYear",
			"outputs": [
				{
					"internalType": "bool",
					"name": "",
					"type": "bool"
				}
			],
			"stateMutability": "pure",
			"type": "function"
		},
		{
			"inputs": [
				{
					"internalType": "uint256",
					"name": "timeStamp",
					"type": "uint256"
				}
			],
			"name": "parseTimeStamp",
			"outputs": [
				{
					"components": [
						{
							"internalType": "uint256",
							"name": "year",
							"type": "uint256"
						},
						{
							"internalType": "uint256",
							"name": "month",
							"type": "uint256"
						},
						{
							"internalType": "uint256",
							"name": "day",
							"type": "uint256"
						},
						{
							"internalType": "uint256",
							"name": "hour",
							"type": "uint256"
						},
						{
							"internalType": "uint256",
							"name": "minute",
							"type": "uint256"
						},
						{
							"internalType": "uint256",
							"name": "second",
							"type": "uint256"
						},
						{
							"internalType": "uint256",
							"name": "weekDays",
							"type": "uint256"
						}
					],
					"internalType": "struct dateAndTime.Date",
					"name": "DAT",
					"type": "tuple"
				}
			],
			"stateMutability": "pure",
			"type": "function"
		},
		{
			"inputs": [
				{
					"internalType": "uint256",
					"name": "year",
					"type": "uint256"
				},
				{
					"internalType": "uint256",
					"name": "month",
					"type": "uint256"
				},
				{
					"internalType": "uint256",
					"name": "day",
					"type": "uint256"
				},
				{
					"internalType": "uint256",
					"name": "hour",
					"type": "uint256"
				},
				{
					"internalType": "uint256",
					"name": "minute",
					"type": "uint256"
				},
				{
					"internalType": "uint256",
					"name": "second",
					"type": "uint256"
				}
			],
			"name": "toTimeStamp",
			"outputs": [
				{
					"internalType": "uint256",
					"name": "timeStamp",
					"type": "uint256"
				}
			],
			"stateMutability": "pure",
			"type": "function"
		},
		{
			"inputs": [
				{
					"internalType": "uint16",
					"name": "year",
					"type": "uint16"
				},
				{
					"internalType": "uint8",
					"name": "month",
					"type": "uint8"
				},
				{
					"internalType": "uint8",
					"name": "day",
					"type": "uint8"
				},
				{
					"internalType": "uint8",
					"name": "hour",
					"type": "uint8"
				},
				{
					"internalType": "uint8",
					"name": "minute",
					"type": "uint8"
				}
			],
			"name": "toTimestamp",
			"outputs": [
				{
					"internalType": "uint256",
					"name": "timestamp",
					"type": "uint256"
				}
			],
			"stateMutability": "pure",
			"type": "function"
		},
		{
			"inputs": [
				{
					"internalType": "uint16",
					"name": "year",
					"type": "uint16"
				},
				{
					"internalType": "uint8",
					"name": "month",
					"type": "uint8"
				},
				{
					"internalType": "uint8",
					"name": "day",
					"type": "uint8"
				},
				{
					"internalType": "uint8",
					"name": "hour",
					"type": "uint8"
				}
			],
			"name": "toTimestamp",
			"outputs": [
				{
					"internalType": "uint256",
					"name": "timestamp",
					"type": "uint256"
				}
			],
			"stateMutability": "pure",
			"type": "function"
		},
		{
			"inputs": [
				{
					"internalType": "uint16",
					"name": "year",
					"type": "uint16"
				},
				{
					"internalType": "uint8",
					"name": "month",
					"type": "uint8"
				},
				{
					"internalType": "uint8",
					"name": "day",
					"type": "uint8"
				}
			],
			"name": "toTimestamp",
			"outputs": [
				{
					"internalType": "uint256",
					"name": "timestamp",
					"type": "uint256"
				}
			],
			"stateMutability": "pure",
			"type": "function"
		}
	]
}